{
  "contractName": "OilExploration",
  "abi": [
    {
      "inputs": [],
      "stateMutability": "nonpayable",
      "type": "constructor"
    },
    {
      "inputs": [],
      "name": "TempValue",
      "outputs": [
        {
          "internalType": "enum OilExploration.TempStage",
          "name": "",
          "type": "uint8"
        }
      ],
      "stateMutability": "view",
      "type": "function"
    },
    {
      "inputs": [],
      "name": "GetLocation",
      "outputs": [
        {
          "internalType": "string",
          "name": "",
          "type": "string"
        }
      ],
      "stateMutability": "view",
      "type": "function"
    },
    {
      "inputs": [
        {
          "internalType": "string",
          "name": "Land_location",
          "type": "string"
        }
      ],
      "name": "Addlocation",
      "outputs": [],
      "stateMutability": "payable",
      "type": "function"
    },
    {
      "inputs": [],
      "name": "getGravityMeasure",
      "outputs": [
        {
          "internalType": "uint256",
          "name": "",
          "type": "uint256"
        }
      ],
      "stateMutability": "view",
      "type": "function"
    },
    {
      "inputs": [
        {
          "internalType": "uint256",
          "name": "Gravity_density",
          "type": "uint256"
        }
      ],
      "name": "SetGravityMeasure",
      "outputs": [],
      "stateMutability": "payable",
      "type": "function"
    },
    {
      "inputs": [],
      "name": "GetMagneticMeasure",
      "outputs": [
        {
          "internalType": "uint256",
          "name": "",
          "type": "uint256"
        }
      ],
      "stateMutability": "view",
      "type": "function"
    },
    {
      "inputs": [
        {
          "internalType": "uint256",
          "name": "Earth_Main_MF",
          "type": "uint256"
        },
        {
          "internalType": "uint256",
          "name": "Rocks_MF",
          "type": "uint256"
        }
      ],
      "name": "SetMagneticMeasure",
      "outputs": [],
      "stateMutability": "payable",
      "type": "function"
    },
    {
      "inputs": [
        {
          "internalType": "uint256",
          "name": "TValue",
          "type": "uint256"
        }
      ],
      "name": "PutTemperature",
      "outputs": [],
      "stateMutability": "payable",
      "type": "function"
    },
    {
      "inputs": [
        {
          "internalType": "uint256",
          "name": "F_Temp",
          "type": "uint256"
        }
      ],
      "name": "AddFixedTemp",
      "outputs": [],
      "stateMutability": "payable",
      "type": "function"
    },
    {
      "inputs": [],
      "name": "CheckTemperature",
      "outputs": [
        {
          "internalType": "string",
          "name": "",
          "type": "string"
        }
      ],
      "stateMutability": "view",
      "type": "function"
    },
    {
      "inputs": [],
      "name": "GetElectricalMeasure",
      "outputs": [
        {
          "internalType": "uint256",
          "name": "",
          "type": "uint256"
        }
      ],
      "stateMutability": "view",
      "type": "function"
    },
    {
      "inputs": [
        {
          "internalType": "uint256",
          "name": "Electrical_conductivity_of_Rock",
          "type": "uint256"
        },
        {
          "internalType": "uint256",
          "name": "Electromagnetic_of_mettalic_body",
          "type": "uint256"
        }
      ],
      "name": "SetElectricalMeasure",
      "outputs": [],
      "stateMutability": "payable",
      "type": "function"
    },
    {
      "inputs": [],
      "name": "GetRadioactiveMeasure",
      "outputs": [
        {
          "internalType": "uint256",
          "name": "",
          "type": "uint256"
        }
      ],
      "stateMutability": "view",
      "type": "function"
    },
    {
      "inputs": [
        {
          "internalType": "uint256",
          "name": "Radioactive",
          "type": "uint256"
        }
      ],
      "name": "SetRadioactiveMeasure",
      "outputs": [],
      "stateMutability": "payable",
      "type": "function"
    },
    {
      "inputs": [],
      "name": "GetDepthMeasure",
      "outputs": [
        {
          "internalType": "uint256",
          "name": "",
          "type": "uint256"
        }
      ],
      "stateMutability": "view",
      "type": "function"
    },
    {
      "inputs": [
        {
          "internalType": "uint256",
          "name": "DepthMeasurement",
          "type": "uint256"
        }
      ],
      "name": "SetDepthMeasure",
      "outputs": [],
      "stateMutability": "nonpayable",
      "type": "function"
    },
    {
      "inputs": [],
      "name": "GetPermialbilityMeasure",
      "outputs": [
        {
          "internalType": "uint256",
          "name": "",
          "type": "uint256"
        }
      ],
      "stateMutability": "view",
      "type": "function"
    },
    {
      "inputs": [
        {
          "internalType": "uint256",
          "name": "Horizontal_Permeability_Air",
          "type": "uint256"
        },
        {
          "internalType": "uint256",
          "name": "Vertical_permiablity_Air",
          "type": "uint256"
        }
      ],
      "name": "SetPermialbilityMeasure",
      "outputs": [],
      "stateMutability": "nonpayable",
      "type": "function"
    },
    {
      "inputs": [],
      "name": "GetCoreProsityMeasure",
      "outputs": [
        {
          "internalType": "uint256",
          "name": "",
          "type": "uint256"
        }
      ],
      "stateMutability": "view",
      "type": "function"
    },
    {
      "inputs": [
        {
          "internalType": "uint256",
          "name": "Core_porosity",
          "type": "uint256"
        }
      ],
      "name": "SetCoreProsityMeasure",
      "outputs": [],
      "stateMutability": "nonpayable",
      "type": "function"
    },
    {
      "inputs": [],
      "name": "GetCoreOilSaturation",
      "outputs": [
        {
          "internalType": "uint256",
          "name": "",
          "type": "uint256"
        }
      ],
      "stateMutability": "view",
      "type": "function"
    },
    {
      "inputs": [
        {
          "internalType": "uint256",
          "name": "core_Oil_Saturation",
          "type": "uint256"
        }
      ],
      "name": "SetCoreOilSaturation",
      "outputs": [],
      "stateMutability": "nonpayable",
      "type": "function"
    },
    {
      "inputs": [],
      "name": "GetCoreWaterSaturation",
      "outputs": [
        {
          "internalType": "uint256",
          "name": "",
          "type": "uint256"
        }
      ],
      "stateMutability": "view",
      "type": "function"
    },
    {
      "inputs": [
        {
          "internalType": "uint256",
          "name": "core_water_Saturation",
          "type": "uint256"
        }
      ],
      "name": "SetCoreWaterSaturation",
      "outputs": [],
      "stateMutability": "nonpayable",
      "type": "function"
    },
    {
      "inputs": [],
      "name": "GetGrainDemsity",
      "outputs": [
        {
          "internalType": "uint256",
          "name": "",
          "type": "uint256"
        }
      ],
      "stateMutability": "view",
      "type": "function"
    },
    {
      "inputs": [
        {
          "internalType": "uint256",
          "name": "Grain_density",
          "type": "uint256"
        }
      ],
      "name": "SetGrainDemsity",
      "outputs": [],
      "stateMutability": "nonpayable",
      "type": "function"
    },
    {
      "inputs": [],
      "name": "CheckDepth",
      "outputs": [
        {
          "internalType": "string",
          "name": "",
          "type": "string"
        }
      ],
      "stateMutability": "view",
      "type": "function"
    }
  ],
  "bytecode": "0x608060405234801561001057600080fd5b503373ffffffffffffffffffffffffffffffffffffffff1660008054906101000a9050505042600281905550610f808061004b6000396000f3fe60806040526004361061019c5760003560e01c806390d5d62e116100ec578063bb02271e1161008a578063dff2492111610064578063dff249211461050d578063e43c915b14610538578063f2db5a5f14610561578063f48d1f131461058c5761019c565b8063bb02271e1461048e578063ccf8b7d5146104b9578063d2352feb146104e25761019c565b8063a919e677116100c6578063a919e677146103f3578063b4407db61461041c578063b526209814610447578063b785460a146104725761019c565b806390d5d62e146103815780639b1759a7146103ac578063a175e11b146103d75761019c565b80633716cc79116101595780634945a0e2116101335780634945a0e2146102f5578063660b01951461031157806377df2d911461032d5780638d20ed5b146103585761019c565b80633716cc7914610285578063392df946146102ae578063493318b6146102d95761019c565b806306568a64146101a157806308a25af2146101cc5780631be0dba3146101f7578063297afd94146102225780632a1bcaae1461023e5780632ba8cc8614610269575b600080fd5b3480156101ad57600080fd5b506101b66105b5565b6040516101c391906108e2565b60405180910390f35b3480156101d857600080fd5b506101e16105bf565b6040516101ee91906108e2565b60405180910390f35b34801561020357600080fd5b5061020c6105c9565b60405161021991906108e2565b60405180910390f35b61023c6004803603810190610237919061093d565b6105d3565b005b34801561024a57600080fd5b506102536105e5565b60405161026091906108e2565b60405180910390f35b610283600480360381019061027e919061097d565b6105ef565b005b34801561029157600080fd5b506102ac60048036038101906102a7919061097d565b6105f9565b005b3480156102ba57600080fd5b506102c3610603565b6040516102d091906108e2565b60405180910390f35b6102f360048036038101906102ee919061097d565b61060d565b005b61030f600480360381019061030a919061097d565b610617565b005b61032b60048036038101906103269190610af0565b610621565b005b34801561033957600080fd5b50610342610634565b60405161034f9190610bb0565b60405180910390f35b34801561036457600080fd5b5061037f600480360381019061037a919061097d565b610647565b005b34801561038d57600080fd5b50610396610651565b6040516103a39190610c4a565b60405180910390f35b3480156103b857600080fd5b506103c1610721565b6040516103ce9190610c4a565b60405180910390f35b6103f160048036038101906103ec919061093d565b6107b9565b005b3480156103ff57600080fd5b5061041a6004803603810190610415919061097d565b6107cb565b005b34801561042857600080fd5b506104316107d5565b60405161043e9190610c4a565b60405180910390f35b34801561045357600080fd5b5061045c610867565b60405161046991906108e2565b60405180910390f35b61048c6004803603810190610487919061097d565b610871565b005b34801561049a57600080fd5b506104a361087b565b6040516104b091906108e2565b60405180910390f35b3480156104c557600080fd5b506104e060048036038101906104db919061093d565b610885565b005b3480156104ee57600080fd5b506104f7610897565b60405161050491906108e2565b60405180910390f35b34801561051957600080fd5b506105226108a1565b60405161052f91906108e2565b60405180910390f35b34801561054457600080fd5b5061055f600480360381019061055a919061097d565b6108ab565b005b34801561056d57600080fd5b506105766108b5565b60405161058391906108e2565b60405180910390f35b34801561059857600080fd5b506105b360048036038101906105ae919061097d565b6108bf565b005b6000600f54905090565b6000600754905090565b6000601254905090565b8160098190555080600a819055505050565b6000600d54905090565b8060058190555050565b8060118190555050565b6000601054905090565b80600b8190555050565b8060048190555050565b80600190816106309190610e78565b5050565b601360009054906101000a900460ff1681565b80600f8190555050565b6060600554600454111561069c576040518060400160405280601381526020017f54454d5045524154555245204953204849474800000000000000000000000000815250905061071e565b60055460045410156106e5576040518060400160405280601281526020017f54454d5045524154555245204953204c4f570000000000000000000000000000815250905061071e565b6040518060400160405280601781526020017f54454d504552415455524520495320414343555241544500000000000000000081525090505b90565b6060617530600c54111561076c576040518060400160405280601381526020017f43616e6e616f742064696720616e796d6f72650000000000000000000000000081525090506107b6565b617530600c5410156107b5576040518060400160405280600781526020017f70726f636565640000000000000000000000000000000000000000000000000081525090506107b6565b5b90565b81600781905550806008819055505050565b8060128190555050565b6060600180546107e490610c9b565b80601f016020809104026020016040519081016040528092919081815260200182805461081090610c9b565b801561085d5780601f106108325761010080835404028352916020019161085d565b820191906000526020600020905b81548152906001019060200180831161084057829003601f168201915b5050505050905090565b6000600954905090565b8060068190555050565b6000600654905090565b81600d8190555080600e819055505050565b6000600c54905090565b6000600b54905090565b8060108190555050565b6000601154905090565b80600c8190555050565b6000819050919050565b6108dc816108c9565b82525050565b60006020820190506108f760008301846108d3565b92915050565b6000604051905090565b600080fd5b600080fd5b61091a816108c9565b811461092557600080fd5b50565b60008135905061093781610911565b92915050565b6000806040838503121561095457610953610907565b5b600061096285828601610928565b925050602061097385828601610928565b9150509250929050565b60006020828403121561099357610992610907565b5b60006109a184828501610928565b91505092915050565b600080fd5b600080fd5b6000601f19601f8301169050919050565b7f4e487b7100000000000000000000000000000000000000000000000000000000600052604160045260246000fd5b6109fd826109b4565b810181811067ffffffffffffffff82111715610a1c57610a1b6109c5565b5b80604052505050565b6000610a2f6108fd565b9050610a3b82826109f4565b919050565b600067ffffffffffffffff821115610a5b57610a5a6109c5565b5b610a64826109b4565b9050602081019050919050565b82818337600083830152505050565b6000610a93610a8e84610a40565b610a25565b905082815260208101848484011115610aaf57610aae6109af565b5b610aba848285610a71565b509392505050565b600082601f830112610ad757610ad66109aa565b5b8135610ae7848260208601610a80565b91505092915050565b600060208284031215610b0657610b05610907565b5b600082013567ffffffffffffffff811115610b2457610b2361090c565b5b610b3084828501610ac2565b91505092915050565b7f4e487b7100000000000000000000000000000000000000000000000000000000600052602160045260246000fd5b60038110610b7957610b78610b39565b5b50565b6000819050610b8a82610b68565b919050565b6000610b9a82610b7c565b9050919050565b610baa81610b8f565b82525050565b6000602082019050610bc56000830184610ba1565b92915050565b600081519050919050565b600082825260208201905092915050565b60005b83811015610c05578082015181840152602081019050610bea565b60008484015250505050565b6000610c1c82610bcb565b610c268185610bd6565b9350610c36818560208601610be7565b610c3f816109b4565b840191505092915050565b60006020820190508181036000830152610c648184610c11565b905092915050565b7f4e487b7100000000000000000000000000000000000000000000000000000000600052602260045260246000fd5b60006002820490506001821680610cb357607f821691505b602082108103610cc657610cc5610c6c565b5b50919050565b60008190508160005260206000209050919050565b60006020601f8301049050919050565b600082821b905092915050565b600060088302610d2e7fffffffffffffffffffffffffffffffffffffffffffffffffffffffffffffffff82610cf1565b610d388683610cf1565b95508019841693508086168417925050509392505050565b6000819050919050565b6000610d75610d70610d6b846108c9565b610d50565b6108c9565b9050919050565b6000819050919050565b610d8f83610d5a565b610da3610d9b82610d7c565b848454610cfe565b825550505050565b600090565b610db8610dab565b610dc3818484610d86565b505050565b5b81811015610de757610ddc600082610db0565b600181019050610dc9565b5050565b601f821115610e2c57610dfd81610ccc565b610e0684610ce1565b81016020851015610e15578190505b610e29610e2185610ce1565b830182610dc8565b50505b505050565b600082821c905092915050565b6000610e4f60001984600802610e31565b1980831691505092915050565b6000610e688383610e3e565b9150826002028217905092915050565b610e8182610bcb565b67ffffffffffffffff811115610e9a57610e996109c5565b5b610ea48254610c9b565b610eaf828285610deb565b600060209050601f831160018114610ee25760008415610ed0578287015190505b610eda8582610e5c565b865550610f42565b601f198416610ef086610ccc565b60005b82811015610f1857848901518255600182019150602085019450602081019050610ef3565b86831015610f355784890151610f31601f891682610e3e565b8355505b6001600288020188555050505b50505050505056fea2646970667358221220936ea10e54ed827bf48862ac2f79cb1332ead6626a2bb6adff57624bc3043c8164736f6c63430008110033",
  "immutableReferences": {},
  "source": "//SPDX-License-Identifier: GPL-3.0\r\npragma solidity ^0.8.6;\r\n\r\ncontract OilExploration {\r\n    address MyAddress;\r\n    string Location;\r\n    uint256 Date;\r\n    uint256 Temperature;\r\n    uint256 MeasureTemp;\r\n    uint256 FixedTemp;\r\n    uint256 G_D;\r\n    uint256 EMF;\r\n    uint256 EMFR;\r\n    uint256 Conductivity;\r\n    uint256 EM;\r\n    uint256 Rad;\r\n    uint256 Depth;\r\n    uint256 KH;\r\n    uint256 KV;\r\n    uint256 CPOR;\r\n    uint256 CSO;\r\n    uint256 CSW;\r\n    uint256 RHOG;\r\n\r\n    enum TempStage {\r\n        Normal,\r\n        High,\r\n        Low\r\n    }\r\n    TempStage public TempValue;\r\n\r\n    constructor() {\r\n        MyAddress == msg.sender;\r\n        Date = block.timestamp;\r\n    }\r\n\r\n    function GetLocation() public view returns (string memory) {\r\n        return Location;\r\n    }\r\n\r\n    function Addlocation(string memory Land_location) public payable {\r\n        Location = Land_location;\r\n    }\r\n\r\n    function getGravityMeasure() public view returns (uint256) {\r\n        return G_D;\r\n    }\r\n\r\n    function SetGravityMeasure(uint256 Gravity_density) public payable {\r\n        G_D = Gravity_density;\r\n    }\r\n\r\n    function GetMagneticMeasure() public view returns (uint256) {\r\n        return EMF;\r\n    }\r\n\r\n    function SetMagneticMeasure(uint256 Earth_Main_MF, uint256 Rocks_MF)\r\n        public\r\n        payable\r\n    {\r\n        EMF = Earth_Main_MF;\r\n        EMFR = Rocks_MF;\r\n    }\r\n\r\n    function PutTemperature(uint256 TValue) public payable {\r\n        MeasureTemp = TValue;\r\n    }\r\n\r\n    function AddFixedTemp(uint256 F_Temp) public payable {\r\n        FixedTemp = F_Temp;\r\n    }\r\n\r\n    function CheckTemperature() public view returns (string memory) {\r\n        if (MeasureTemp > FixedTemp) {\r\n            return \"TEMPERATURE IS HIGH\";\r\n        } else if (MeasureTemp < FixedTemp) {\r\n            return \"TEMPERATURE IS LOW\";\r\n        } else {\r\n            return \"TEMPERATURE IS ACCURATE\";\r\n        }\r\n    }\r\n\r\n    function GetElectricalMeasure() public view returns (uint256) {\r\n        return Conductivity;\r\n    }\r\n\r\n    function SetElectricalMeasure(\r\n        uint256 Electrical_conductivity_of_Rock,\r\n        uint256 Electromagnetic_of_mettalic_body\r\n    ) public payable {\r\n        Conductivity = Electrical_conductivity_of_Rock;\r\n        EM = Electromagnetic_of_mettalic_body;\r\n    }\r\n\r\n    function GetRadioactiveMeasure() public view returns (uint256) {\r\n        return Rad;\r\n    }\r\n\r\n    function SetRadioactiveMeasure(uint256 Radioactive) public payable {\r\n        Rad = Radioactive;\r\n    }\r\n\r\n    function GetDepthMeasure() public view returns (uint256) {\r\n        return Depth;\r\n    }\r\n\r\n    function SetDepthMeasure(uint256 DepthMeasurement) public {\r\n        Depth = DepthMeasurement;\r\n    }\r\n\r\n    function GetPermialbilityMeasure() public view returns (uint256) {\r\n        return KH;\r\n    }\r\n\r\n    function SetPermialbilityMeasure(\r\n        uint256 Horizontal_Permeability_Air,\r\n        uint256 Vertical_permiablity_Air\r\n    ) public {\r\n        KH = Horizontal_Permeability_Air;\r\n        KV = Vertical_permiablity_Air;\r\n    }\r\n\r\n    function GetCoreProsityMeasure() public view returns (uint256) {\r\n        return CPOR;\r\n    }\r\n\r\n    function SetCoreProsityMeasure(uint256 Core_porosity) public {\r\n        CPOR = Core_porosity;\r\n    }\r\n\r\n    function GetCoreOilSaturation() public view returns (uint256) {\r\n        return CSO;\r\n    }\r\n\r\n    function SetCoreOilSaturation(uint256 core_Oil_Saturation) public {\r\n        CSO = core_Oil_Saturation;\r\n    }\r\n\r\n    function GetCoreWaterSaturation() public view returns (uint256) {\r\n        return CSW;\r\n    }\r\n\r\n    function SetCoreWaterSaturation(uint256 core_water_Saturation) public {\r\n        CSW = core_water_Saturation;\r\n    }\r\n\r\n    function GetGrainDemsity() public view returns (uint256) {\r\n        return RHOG;\r\n    }\r\n\r\n    function SetGrainDemsity(uint256 Grain_density) public {\r\n        RHOG = Grain_density;\r\n    }\r\n\r\n    function CheckDepth() public view returns (string memory) {\r\n        if (Depth > 30000) {\r\n            return \"Cannaot dig anymore\";\r\n        } else if (Depth < 30000) {\r\n            return \"proceed\";\r\n        }\r\n    }\r\n}\r\n",
  "sourcePath": "F:\\Code\\Blockchain\\hex-oil\\contracts\\oilexploration.sol",
  "compiler": {
    "name": "solc",
    "version": "0.8.17+commit.8df45f5f.Emscripten.clang"
  },
  "schemaVersion": "3.4.11",
  "updatedAt": "2022-12-03T06:05:28.285Z",
  "devdoc": {
    "kind": "dev",
    "methods": {},
    "version": 1
  },
  "userdoc": {
    "kind": "user",
    "methods": {},
    "version": 1
  }
}