{
  "contractName": "OilExploration",
  "abi": [
    {
      "inputs": [],
      "stateMutability": "nonpayable",
      "type": "constructor"
    },
    {
      "inputs": [],
      "name": "TempValue",
      "outputs": [
        {
          "internalType": "enum OilExploration.TempStage",
          "name": "",
          "type": "uint8"
        }
      ],
      "stateMutability": "view",
      "type": "function",
      "constant": true
    },
    {
      "inputs": [],
      "name": "GetNullifierhash",
      "outputs": [
        {
          "internalType": "uint256",
          "name": "",
          "type": "uint256"
        }
      ],
      "stateMutability": "view",
      "type": "function",
      "constant": true
    },
    {
      "inputs": [],
      "name": "GetLocation",
      "outputs": [
        {
          "internalType": "string",
          "name": "",
          "type": "string"
        }
      ],
      "stateMutability": "view",
      "type": "function",
      "constant": true
    },
    {
      "inputs": [
        {
          "internalType": "string",
          "name": "Land_location",
          "type": "string"
        }
      ],
      "name": "Addlocation",
      "outputs": [],
      "stateMutability": "payable",
      "type": "function",
      "payable": true
    },
    {
      "inputs": [],
      "name": "getGravityMeasure",
      "outputs": [
        {
          "internalType": "uint256",
          "name": "",
          "type": "uint256"
        }
      ],
      "stateMutability": "view",
      "type": "function",
      "constant": true
    },
    {
      "inputs": [
        {
          "internalType": "uint256",
          "name": "Gravity_density",
          "type": "uint256"
        }
      ],
      "name": "SetGravityMeasure",
      "outputs": [],
      "stateMutability": "payable",
      "type": "function",
      "payable": true
    },
    {
      "inputs": [],
      "name": "GetMagneticMeasure",
      "outputs": [
        {
          "internalType": "uint256",
          "name": "",
          "type": "uint256"
        }
      ],
      "stateMutability": "view",
      "type": "function",
      "constant": true
    },
    {
      "inputs": [
        {
          "internalType": "uint256",
          "name": "Earth_Main_MF",
          "type": "uint256"
        },
        {
          "internalType": "uint256",
          "name": "Rocks_MF",
          "type": "uint256"
        }
      ],
      "name": "SetMagneticMeasure",
      "outputs": [],
      "stateMutability": "payable",
      "type": "function",
      "payable": true
    },
    {
      "inputs": [
        {
          "internalType": "uint256",
          "name": "TValue",
          "type": "uint256"
        }
      ],
      "name": "PutTemperature",
      "outputs": [],
      "stateMutability": "payable",
      "type": "function",
      "payable": true
    },
    {
      "inputs": [
        {
          "internalType": "uint256",
          "name": "F_Temp",
          "type": "uint256"
        }
      ],
      "name": "AddFixedTemp",
      "outputs": [],
      "stateMutability": "payable",
      "type": "function",
      "payable": true
    },
    {
      "inputs": [],
      "name": "CheckTemperature",
      "outputs": [
        {
          "internalType": "string",
          "name": "",
          "type": "string"
        }
      ],
      "stateMutability": "view",
      "type": "function",
      "constant": true
    },
    {
      "inputs": [],
      "name": "GetElectricalMeasure",
      "outputs": [
        {
          "internalType": "uint256",
          "name": "",
          "type": "uint256"
        }
      ],
      "stateMutability": "view",
      "type": "function",
      "constant": true
    },
    {
      "inputs": [
        {
          "internalType": "uint256",
          "name": "Electrical_conductivity_of_Rock",
          "type": "uint256"
        },
        {
          "internalType": "uint256",
          "name": "Electromagnetic_of_mettalic_body",
          "type": "uint256"
        }
      ],
      "name": "SetElectricalMeasure",
      "outputs": [],
      "stateMutability": "payable",
      "type": "function",
      "payable": true
    },
    {
      "inputs": [],
      "name": "GetRadioactiveMeasure",
      "outputs": [
        {
          "internalType": "uint256",
          "name": "",
          "type": "uint256"
        }
      ],
      "stateMutability": "view",
      "type": "function",
      "constant": true
    },
    {
      "inputs": [
        {
          "internalType": "uint256",
          "name": "Radioactive",
          "type": "uint256"
        }
      ],
      "name": "SetRadioactiveMeasure",
      "outputs": [],
      "stateMutability": "payable",
      "type": "function",
      "payable": true
    },
    {
      "inputs": [],
      "name": "GetDepthMeasure",
      "outputs": [
        {
          "internalType": "uint256",
          "name": "",
          "type": "uint256"
        }
      ],
      "stateMutability": "view",
      "type": "function",
      "constant": true
    },
    {
      "inputs": [
        {
          "internalType": "uint256",
          "name": "DepthMeasurement",
          "type": "uint256"
        }
      ],
      "name": "SetDepthMeasure",
      "outputs": [],
      "stateMutability": "nonpayable",
      "type": "function"
    },
    {
      "inputs": [],
      "name": "GetPermialbilityMeasure",
      "outputs": [
        {
          "internalType": "uint256",
          "name": "",
          "type": "uint256"
        }
      ],
      "stateMutability": "view",
      "type": "function",
      "constant": true
    },
    {
      "inputs": [
        {
          "internalType": "uint256",
          "name": "Horizontal_Permeability_Air",
          "type": "uint256"
        },
        {
          "internalType": "uint256",
          "name": "Vertical_permiablity_Air",
          "type": "uint256"
        }
      ],
      "name": "SetPermialbilityMeasure",
      "outputs": [],
      "stateMutability": "nonpayable",
      "type": "function"
    },
    {
      "inputs": [],
      "name": "GetCoreProsityMeasure",
      "outputs": [
        {
          "internalType": "uint256",
          "name": "",
          "type": "uint256"
        }
      ],
      "stateMutability": "view",
      "type": "function",
      "constant": true
    },
    {
      "inputs": [
        {
          "internalType": "uint256",
          "name": "Core_porosity",
          "type": "uint256"
        }
      ],
      "name": "SetCoreProsityMeasure",
      "outputs": [],
      "stateMutability": "nonpayable",
      "type": "function"
    },
    {
      "inputs": [],
      "name": "GetCoreOilSaturation",
      "outputs": [
        {
          "internalType": "uint256",
          "name": "",
          "type": "uint256"
        }
      ],
      "stateMutability": "view",
      "type": "function",
      "constant": true
    },
    {
      "inputs": [
        {
          "internalType": "uint256",
          "name": "core_Oil_Saturation",
          "type": "uint256"
        }
      ],
      "name": "SetCoreOilSaturation",
      "outputs": [],
      "stateMutability": "nonpayable",
      "type": "function"
    },
    {
      "inputs": [],
      "name": "GetCoreWaterSaturation",
      "outputs": [
        {
          "internalType": "uint256",
          "name": "",
          "type": "uint256"
        }
      ],
      "stateMutability": "view",
      "type": "function",
      "constant": true
    },
    {
      "inputs": [
        {
          "internalType": "uint256",
          "name": "core_water_Saturation",
          "type": "uint256"
        }
      ],
      "name": "SetCoreWaterSaturation",
      "outputs": [],
      "stateMutability": "nonpayable",
      "type": "function"
    },
    {
      "inputs": [],
      "name": "GetGrainDemsity",
      "outputs": [
        {
          "internalType": "uint256",
          "name": "",
          "type": "uint256"
        }
      ],
      "stateMutability": "view",
      "type": "function",
      "constant": true
    },
    {
      "inputs": [
        {
          "internalType": "uint256",
          "name": "Grain_density",
          "type": "uint256"
        }
      ],
      "name": "SetGrainDemsity",
      "outputs": [],
      "stateMutability": "nonpayable",
      "type": "function"
    },
    {
      "inputs": [],
      "name": "CheckDepth",
      "outputs": [
        {
          "internalType": "string",
          "name": "",
          "type": "string"
        }
      ],
      "stateMutability": "view",
      "type": "function",
      "constant": true
    }
  ],
  "bytecode": "0x608060405234801561001057600080fd5b5042600181905550610fd0806100276000396000f3fe6080604052600436106101b75760003560e01c806393856bfc116100ec578063bb02271e1161008a578063dff2492111610064578063dff2492114610553578063e43c915b1461057e578063f2db5a5f146105a7578063f48d1f13146105d2576101b7565b8063bb02271e146104d4578063ccf8b7d5146104ff578063d2352feb14610528576101b7565b8063a919e677116100c6578063a919e67714610439578063b4407db614610462578063b52620981461048d578063b785460a146104b8576101b7565b806393856bfc146103c75780639b1759a7146103f2578063a175e11b1461041d576101b7565b8063392df94611610159578063660b019511610133578063660b01951461032c57806377df2d91146103485780638d20ed5b1461037357806390d5d62e1461039c576101b7565b8063392df946146102c9578063493318b6146102f45780634945a0e214610310576101b7565b8063297afd9411610195578063297afd941461023d5780632a1bcaae146102595780632ba8cc86146102845780633716cc79146102a0576101b7565b806306568a64146101bc57806308a25af2146101e75780631be0dba314610212575b600080fd5b3480156101c857600080fd5b506101d16105fb565b6040516101de9190610932565b60405180910390f35b3480156101f357600080fd5b506101fc610605565b6040516102099190610932565b60405180910390f35b34801561021e57600080fd5b5061022761060f565b6040516102349190610932565b60405180910390f35b6102576004803603810190610252919061098d565b610619565b005b34801561026557600080fd5b5061026e61062b565b60405161027b9190610932565b60405180910390f35b61029e600480360381019061029991906109cd565b610635565b005b3480156102ac57600080fd5b506102c760048036038101906102c291906109cd565b61063f565b005b3480156102d557600080fd5b506102de610649565b6040516102eb9190610932565b60405180910390f35b61030e600480360381019061030991906109cd565b610653565b005b61032a600480360381019061032591906109cd565b61065d565b005b61034660048036038101906103419190610b40565b610667565b005b34801561035457600080fd5b5061035d61067a565b60405161036a9190610c00565b60405180910390f35b34801561037f57600080fd5b5061039a600480360381019061039591906109cd565b61068d565b005b3480156103a857600080fd5b506103b1610697565b6040516103be9190610c9a565b60405180910390f35b3480156103d357600080fd5b506103dc610767565b6040516103e99190610932565b60405180910390f35b3480156103fe57600080fd5b50610407610771565b6040516104149190610c9a565b60405180910390f35b6104376004803603810190610432919061098d565b610809565b005b34801561044557600080fd5b50610460600480360381019061045b91906109cd565b61081b565b005b34801561046e57600080fd5b50610477610825565b6040516104849190610c9a565b60405180910390f35b34801561049957600080fd5b506104a26108b7565b6040516104af9190610932565b60405180910390f35b6104d260048036038101906104cd91906109cd565b6108c1565b005b3480156104e057600080fd5b506104e96108cb565b6040516104f69190610932565b60405180910390f35b34801561050b57600080fd5b506105266004803603810190610521919061098d565b6108d5565b005b34801561053457600080fd5b5061053d6108e7565b60405161054a9190610932565b60405180910390f35b34801561055f57600080fd5b506105686108f1565b6040516105759190610932565b60405180910390f35b34801561058a57600080fd5b506105a560048036038101906105a091906109cd565b6108fb565b005b3480156105b357600080fd5b506105bc610905565b6040516105c99190610932565b60405180910390f35b3480156105de57600080fd5b506105f960048036038101906105f491906109cd565b61090f565b005b6000600d54905090565b6000600554905090565b6000601054905090565b81600781905550806008819055505050565b6000600b54905090565b8060038190555050565b80600f8190555050565b6000600e54905090565b8060098190555050565b8060028190555050565b80600090816106769190610ec8565b5050565b601260009054906101000a900460ff1681565b80600d8190555050565b606060035460025411156106e2576040518060400160405280601381526020017f54454d50455241545552452049532048494748000000000000000000000000008152509050610764565b600354600254101561072b576040518060400160405280601281526020017f54454d5045524154555245204953204c4f5700000000000000000000000000008152509050610764565b6040518060400160405280601781526020017f54454d504552415455524520495320414343555241544500000000000000000081525090505b90565b6000601154905090565b6060617530600a5411156107bc576040518060400160405280601381526020017f43616e6e616f742064696720616e796d6f7265000000000000000000000000008152509050610806565b617530600a541015610805576040518060400160405280600781526020017f70726f63656564000000000000000000000000000000000000000000000000008152509050610806565b5b90565b81600581905550806006819055505050565b8060108190555050565b60606000805461083490610ceb565b80601f016020809104026020016040519081016040528092919081815260200182805461086090610ceb565b80156108ad5780601f10610882576101008083540402835291602001916108ad565b820191906000526020600020905b81548152906001019060200180831161089057829003601f168201915b5050505050905090565b6000600754905090565b8060048190555050565b6000600454905090565b81600b8190555080600c819055505050565b6000600a54905090565b6000600954905090565b80600e8190555050565b6000600f54905090565b80600a8190555050565b6000819050919050565b61092c81610919565b82525050565b60006020820190506109476000830184610923565b92915050565b6000604051905090565b600080fd5b600080fd5b61096a81610919565b811461097557600080fd5b50565b60008135905061098781610961565b92915050565b600080604083850312156109a4576109a3610957565b5b60006109b285828601610978565b92505060206109c385828601610978565b9150509250929050565b6000602082840312156109e3576109e2610957565b5b60006109f184828501610978565b91505092915050565b600080fd5b600080fd5b6000601f19601f8301169050919050565b7f4e487b7100000000000000000000000000000000000000000000000000000000600052604160045260246000fd5b610a4d82610a04565b810181811067ffffffffffffffff82111715610a6c57610a6b610a15565b5b80604052505050565b6000610a7f61094d565b9050610a8b8282610a44565b919050565b600067ffffffffffffffff821115610aab57610aaa610a15565b5b610ab482610a04565b9050602081019050919050565b82818337600083830152505050565b6000610ae3610ade84610a90565b610a75565b905082815260208101848484011115610aff57610afe6109ff565b5b610b0a848285610ac1565b509392505050565b600082601f830112610b2757610b266109fa565b5b8135610b37848260208601610ad0565b91505092915050565b600060208284031215610b5657610b55610957565b5b600082013567ffffffffffffffff811115610b7457610b7361095c565b5b610b8084828501610b12565b91505092915050565b7f4e487b7100000000000000000000000000000000000000000000000000000000600052602160045260246000fd5b60038110610bc957610bc8610b89565b5b50565b6000819050610bda82610bb8565b919050565b6000610bea82610bcc565b9050919050565b610bfa81610bdf565b82525050565b6000602082019050610c156000830184610bf1565b92915050565b600081519050919050565b600082825260208201905092915050565b60005b83811015610c55578082015181840152602081019050610c3a565b60008484015250505050565b6000610c6c82610c1b565b610c768185610c26565b9350610c86818560208601610c37565b610c8f81610a04565b840191505092915050565b60006020820190508181036000830152610cb48184610c61565b905092915050565b7f4e487b7100000000000000000000000000000000000000000000000000000000600052602260045260246000fd5b60006002820490506001821680610d0357607f821691505b602082108103610d1657610d15610cbc565b5b50919050565b60008190508160005260206000209050919050565b60006020601f8301049050919050565b600082821b905092915050565b600060088302610d7e7fffffffffffffffffffffffffffffffffffffffffffffffffffffffffffffffff82610d41565b610d888683610d41565b95508019841693508086168417925050509392505050565b6000819050919050565b6000610dc5610dc0610dbb84610919565b610da0565b610919565b9050919050565b6000819050919050565b610ddf83610daa565b610df3610deb82610dcc565b848454610d4e565b825550505050565b600090565b610e08610dfb565b610e13818484610dd6565b505050565b5b81811015610e3757610e2c600082610e00565b600181019050610e19565b5050565b601f821115610e7c57610e4d81610d1c565b610e5684610d31565b81016020851015610e65578190505b610e79610e7185610d31565b830182610e18565b50505b505050565b600082821c905092915050565b6000610e9f60001984600802610e81565b1980831691505092915050565b6000610eb88383610e8e565b9150826002028217905092915050565b610ed182610c1b565b67ffffffffffffffff811115610eea57610ee9610a15565b5b610ef48254610ceb565b610eff828285610e3b565b600060209050601f831160018114610f325760008415610f20578287015190505b610f2a8582610eac565b865550610f92565b601f198416610f4086610d1c565b60005b82811015610f6857848901518255600182019150602085019450602081019050610f43565b86831015610f855784890151610f81601f891682610e8e565b8355505b6001600288020188555050505b50505050505056fea2646970667358221220ab60186979b6612114cfa918a874caecc75b4759eb661fb1a0a1109396d6110964736f6c63430008110033",
  "immutableReferences": {},
  "source": "//SPDX-License-Identifier: UNLICENSED\r\npragma solidity ^0.8.6;\r\n\r\ncontract OilExploration {\r\n    // address MyAddress;\r\n    string Location;\r\n    uint256 Date;\r\n    //uint Temperature;\r\n    uint256 MeasureTemp;\r\n    uint256 FixedTemp;\r\n    uint256 G_D;\r\n    uint256 EMF;\r\n    uint256 EMFR;\r\n    uint256 Conductivity;\r\n    uint256 EM;\r\n    uint256 Rad;\r\n    uint256 Depth;\r\n    uint256 KH;\r\n    uint256 KV;\r\n    uint256 CPOR;\r\n    uint256 CSO;\r\n    uint256 CSW;\r\n    uint256 RHOG;\r\n    uint256 Nullifierhash;\r\n\r\n    enum TempStage {\r\n        Normal,\r\n        High,\r\n        Low\r\n    }\r\n    TempStage public TempValue;\r\n\r\n    constructor() {\r\n        // MyAddress==msg.sender;\r\n        Date = block.timestamp;\r\n    }\r\n\r\n    // function GetAddress(address _address) public payable\r\n    // {\r\n    //     MyAddress=_address;\r\n    // }\r\n    // function GetAddressBalance() public view returns (uint) {\r\n    //     return MyAddress.balance;\r\n    // }\r\n\r\n    function GetNullifierhash() public view returns (uint256) {\r\n        return Nullifierhash;\r\n    }\r\n\r\n    function GetLocation() public view returns (string memory) {\r\n        return Location;\r\n    }\r\n\r\n    function Addlocation(string memory Land_location) public payable {\r\n        Location = Land_location;\r\n    }\r\n\r\n    function getGravityMeasure() public view returns (uint256) {\r\n        return G_D;\r\n    }\r\n\r\n    function SetGravityMeasure(uint256 Gravity_density) public payable {\r\n        G_D = Gravity_density;\r\n    }\r\n\r\n    function GetMagneticMeasure() public view returns (uint256) {\r\n        return EMF;\r\n        return EMFR;\r\n    }\r\n\r\n    function SetMagneticMeasure(uint256 Earth_Main_MF, uint256 Rocks_MF)\r\n        public\r\n        payable\r\n    {\r\n        EMF = Earth_Main_MF;\r\n        EMFR = Rocks_MF;\r\n    }\r\n\r\n    function PutTemperature(uint256 TValue) public payable {\r\n        MeasureTemp = TValue;\r\n    }\r\n\r\n    function AddFixedTemp(uint256 F_Temp) public payable {\r\n        FixedTemp = F_Temp;\r\n    }\r\n\r\n    function CheckTemperature() public view returns (string memory) {\r\n        if (MeasureTemp > FixedTemp) {\r\n            return \"TEMPERATURE IS HIGH\";\r\n        } else if (MeasureTemp < FixedTemp) {\r\n            return \"TEMPERATURE IS LOW\";\r\n        } else {\r\n            return \"TEMPERATURE IS ACCURATE\";\r\n        }\r\n    }\r\n\r\n    function GetElectricalMeasure() public view returns (uint256) {\r\n        return Conductivity;\r\n        return EM;\r\n    }\r\n\r\n    function SetElectricalMeasure(\r\n        uint256 Electrical_conductivity_of_Rock,\r\n        uint256 Electromagnetic_of_mettalic_body\r\n    ) public payable {\r\n        Conductivity = Electrical_conductivity_of_Rock;\r\n        EM = Electromagnetic_of_mettalic_body;\r\n    }\r\n\r\n    function GetRadioactiveMeasure() public view returns (uint256) {\r\n        return Rad;\r\n    }\r\n\r\n    function SetRadioactiveMeasure(uint256 Radioactive) public payable {\r\n        Rad = Radioactive;\r\n    }\r\n\r\n    function GetDepthMeasure() public view returns (uint256) {\r\n        return Depth;\r\n    }\r\n\r\n    function SetDepthMeasure(uint256 DepthMeasurement) public {\r\n        Depth = DepthMeasurement;\r\n    }\r\n\r\n    function GetPermialbilityMeasure() public view returns (uint256) {\r\n        return KH;\r\n        return KV;\r\n    }\r\n\r\n    function SetPermialbilityMeasure(\r\n        uint256 Horizontal_Permeability_Air,\r\n        uint256 Vertical_permiablity_Air\r\n    ) public {\r\n        KH = Horizontal_Permeability_Air;\r\n        KV = Vertical_permiablity_Air;\r\n    }\r\n\r\n    function GetCoreProsityMeasure() public view returns (uint256) {\r\n        return CPOR;\r\n    }\r\n\r\n    function SetCoreProsityMeasure(uint256 Core_porosity) public {\r\n        CPOR = Core_porosity;\r\n    }\r\n\r\n    function GetCoreOilSaturation() public view returns (uint256) {\r\n        return CSO;\r\n    }\r\n\r\n    function SetCoreOilSaturation(uint256 core_Oil_Saturation) public {\r\n        CSO = core_Oil_Saturation;\r\n    }\r\n\r\n    function GetCoreWaterSaturation() public view returns (uint256) {\r\n        return CSW;\r\n    }\r\n\r\n    function SetCoreWaterSaturation(uint256 core_water_Saturation) public {\r\n        CSW = core_water_Saturation;\r\n    }\r\n\r\n    function GetGrainDemsity() public view returns (uint256) {\r\n        return RHOG;\r\n    }\r\n\r\n    function SetGrainDemsity(uint256 Grain_density) public {\r\n        RHOG = Grain_density;\r\n    }\r\n\r\n    function CheckDepth() public view returns (string memory) {\r\n        if (Depth > 30000) {\r\n            return \"Cannaot dig anymore\";\r\n        } else if (Depth < 30000) {\r\n            return \"proceed\";\r\n        }\r\n    }\r\n}\r\n",
  "sourcePath": "F:\\Code\\Blockchain\\hex-oil\\contracts\\oilexploration.sol",
  "compiler": {
    "name": "solc",
    "version": "0.8.17+commit.8df45f5f.Emscripten.clang"
  },
  "schemaVersion": "3.4.11",
  "updatedAt": "2022-12-04T00:09:06.292Z",
  "networkType": "ethereum",
  "devdoc": {
    "kind": "dev",
    "methods": {},
    "version": 1
  },
  "userdoc": {
    "kind": "user",
    "methods": {},
    "version": 1
  }
}