{
  "contractName": "OilExploration",
  "abi": [
    {
      "inputs": [],
      "stateMutability": "nonpayable",
      "type": "constructor"
    },
    {
      "inputs": [],
      "name": "TempValue",
      "outputs": [
        {
          "internalType": "enum OilExploration.TempStage",
          "name": "",
          "type": "uint8"
        }
      ],
      "stateMutability": "view",
      "type": "function",
      "constant": true
    },
    {
      "inputs": [
        {
          "internalType": "string",
          "name": "Nullifier_hash",
          "type": "string"
        }
      ],
      "name": "setnullifierhash",
      "outputs": [],
      "stateMutability": "payable",
      "type": "function",
      "payable": true
    },
    {
      "inputs": [],
      "name": "GetNullifierhash",
      "outputs": [
        {
          "internalType": "string",
          "name": "",
          "type": "string"
        }
      ],
      "stateMutability": "view",
      "type": "function",
      "constant": true
    },
    {
      "inputs": [],
      "name": "GetLocation",
      "outputs": [
        {
          "internalType": "string",
          "name": "",
          "type": "string"
        }
      ],
      "stateMutability": "view",
      "type": "function",
      "constant": true
    },
    {
      "inputs": [
        {
          "internalType": "string",
          "name": "Land_location",
          "type": "string"
        }
      ],
      "name": "Addlocation",
      "outputs": [],
      "stateMutability": "payable",
      "type": "function",
      "payable": true
    },
    {
      "inputs": [],
      "name": "getGravityMeasure",
      "outputs": [
        {
          "internalType": "uint256",
          "name": "",
          "type": "uint256"
        }
      ],
      "stateMutability": "view",
      "type": "function",
      "constant": true
    },
    {
      "inputs": [
        {
          "internalType": "uint256",
          "name": "Gravity_density",
          "type": "uint256"
        }
      ],
      "name": "SetGravityMeasure",
      "outputs": [],
      "stateMutability": "payable",
      "type": "function",
      "payable": true
    },
    {
      "inputs": [],
      "name": "GetMagneticMeasure",
      "outputs": [
        {
          "internalType": "uint256",
          "name": "",
          "type": "uint256"
        }
      ],
      "stateMutability": "view",
      "type": "function",
      "constant": true
    },
    {
      "inputs": [
        {
          "internalType": "uint256",
          "name": "Earth_Main_MF",
          "type": "uint256"
        },
        {
          "internalType": "uint256",
          "name": "Rocks_MF",
          "type": "uint256"
        }
      ],
      "name": "SetMagneticMeasure",
      "outputs": [],
      "stateMutability": "payable",
      "type": "function",
      "payable": true
    },
    {
      "inputs": [
        {
          "internalType": "uint256",
          "name": "TValue",
          "type": "uint256"
        }
      ],
      "name": "PutTemperature",
      "outputs": [],
      "stateMutability": "payable",
      "type": "function",
      "payable": true
    },
    {
      "inputs": [
        {
          "internalType": "uint256",
          "name": "F_Temp",
          "type": "uint256"
        }
      ],
      "name": "AddFixedTemp",
      "outputs": [],
      "stateMutability": "payable",
      "type": "function",
      "payable": true
    },
    {
      "inputs": [],
      "name": "CheckTemperature",
      "outputs": [
        {
          "internalType": "string",
          "name": "",
          "type": "string"
        }
      ],
      "stateMutability": "view",
      "type": "function",
      "constant": true
    },
    {
      "inputs": [],
      "name": "GetElectricalMeasure",
      "outputs": [
        {
          "internalType": "uint256",
          "name": "",
          "type": "uint256"
        }
      ],
      "stateMutability": "view",
      "type": "function",
      "constant": true
    },
    {
      "inputs": [
        {
          "internalType": "uint256",
          "name": "Electrical_conductivity_of_Rock",
          "type": "uint256"
        },
        {
          "internalType": "uint256",
          "name": "Electromagnetic_of_mettalic_body",
          "type": "uint256"
        }
      ],
      "name": "SetElectricalMeasure",
      "outputs": [],
      "stateMutability": "payable",
      "type": "function",
      "payable": true
    },
    {
      "inputs": [],
      "name": "GetRadioactiveMeasure",
      "outputs": [
        {
          "internalType": "uint256",
          "name": "",
          "type": "uint256"
        }
      ],
      "stateMutability": "view",
      "type": "function",
      "constant": true
    },
    {
      "inputs": [
        {
          "internalType": "uint256",
          "name": "Radioactive",
          "type": "uint256"
        }
      ],
      "name": "SetRadioactiveMeasure",
      "outputs": [],
      "stateMutability": "payable",
      "type": "function",
      "payable": true
    },
    {
      "inputs": [],
      "name": "GetDepthMeasure",
      "outputs": [
        {
          "internalType": "uint256",
          "name": "",
          "type": "uint256"
        }
      ],
      "stateMutability": "view",
      "type": "function",
      "constant": true
    },
    {
      "inputs": [
        {
          "internalType": "uint256",
          "name": "DepthMeasurement",
          "type": "uint256"
        }
      ],
      "name": "SetDepthMeasure",
      "outputs": [],
      "stateMutability": "nonpayable",
      "type": "function"
    },
    {
      "inputs": [],
      "name": "GetPermialbilityMeasure",
      "outputs": [
        {
          "internalType": "uint256",
          "name": "",
          "type": "uint256"
        }
      ],
      "stateMutability": "view",
      "type": "function",
      "constant": true
    },
    {
      "inputs": [
        {
          "internalType": "uint256",
          "name": "Horizontal_Permeability_Air",
          "type": "uint256"
        },
        {
          "internalType": "uint256",
          "name": "Vertical_permiablity_Air",
          "type": "uint256"
        }
      ],
      "name": "SetPermialbilityMeasure",
      "outputs": [],
      "stateMutability": "nonpayable",
      "type": "function"
    },
    {
      "inputs": [],
      "name": "GetCoreProsityMeasure",
      "outputs": [
        {
          "internalType": "uint256",
          "name": "",
          "type": "uint256"
        }
      ],
      "stateMutability": "view",
      "type": "function",
      "constant": true
    },
    {
      "inputs": [
        {
          "internalType": "uint256",
          "name": "Core_porosity",
          "type": "uint256"
        }
      ],
      "name": "SetCoreProsityMeasure",
      "outputs": [],
      "stateMutability": "nonpayable",
      "type": "function"
    },
    {
      "inputs": [],
      "name": "GetCoreOilSaturation",
      "outputs": [
        {
          "internalType": "uint256",
          "name": "",
          "type": "uint256"
        }
      ],
      "stateMutability": "view",
      "type": "function",
      "constant": true
    },
    {
      "inputs": [
        {
          "internalType": "uint256",
          "name": "core_Oil_Saturation",
          "type": "uint256"
        }
      ],
      "name": "SetCoreOilSaturation",
      "outputs": [],
      "stateMutability": "nonpayable",
      "type": "function"
    },
    {
      "inputs": [],
      "name": "GetCoreWaterSaturation",
      "outputs": [
        {
          "internalType": "uint256",
          "name": "",
          "type": "uint256"
        }
      ],
      "stateMutability": "view",
      "type": "function",
      "constant": true
    },
    {
      "inputs": [
        {
          "internalType": "uint256",
          "name": "core_water_Saturation",
          "type": "uint256"
        }
      ],
      "name": "SetCoreWaterSaturation",
      "outputs": [],
      "stateMutability": "nonpayable",
      "type": "function"
    },
    {
      "inputs": [],
      "name": "GetGrainDemsity",
      "outputs": [
        {
          "internalType": "uint256",
          "name": "",
          "type": "uint256"
        }
      ],
      "stateMutability": "view",
      "type": "function",
      "constant": true
    },
    {
      "inputs": [
        {
          "internalType": "uint256",
          "name": "Grain_density",
          "type": "uint256"
        }
      ],
      "name": "SetGrainDemsity",
      "outputs": [],
      "stateMutability": "nonpayable",
      "type": "function"
    },
    {
      "inputs": [],
      "name": "CheckDepth",
      "outputs": [
        {
          "internalType": "string",
          "name": "",
          "type": "string"
        }
      ],
      "stateMutability": "view",
      "type": "function",
      "constant": true
    }
  ],
  "bytecode": "0x608060405234801561001057600080fd5b503373ffffffffffffffffffffffffffffffffffffffff1660008054906101000a90505050426002819055506110928061004b6000396000f3fe6080604052600436106101c25760003560e01c806390d5d62e116100f7578063b785460a11610095578063dff2492111610064578063dff249211461057a578063e43c915b146105a5578063f2db5a5f146105ce578063f48d1f13146105f9576101c2565b8063b785460a146104df578063bb02271e146104fb578063ccf8b7d514610526578063d2352feb1461054f576101c2565b8063a175e11b116100d1578063a175e11b14610444578063a919e67714610460578063b4407db614610489578063b5262098146104b4576101c2565b806390d5d62e146103c357806393856bfc146103ee5780639b1759a714610419576101c2565b8063392df946116101645780635ba195d41161013e5780635ba195d414610337578063660b01951461035357806377df2d911461036f5780638d20ed5b1461039a576101c2565b8063392df946146102d4578063493318b6146102ff5780634945a0e21461031b576101c2565b8063297afd94116101a0578063297afd94146102485780632a1bcaae146102645780632ba8cc861461028f5780633716cc79146102ab576101c2565b806306568a64146101c757806308a25af2146101f25780631be0dba31461021d575b600080fd5b3480156101d357600080fd5b506101dc610622565b6040516101e991906109f4565b60405180910390f35b3480156101fe57600080fd5b5061020761062c565b60405161021491906109f4565b60405180910390f35b34801561022957600080fd5b50610232610636565b60405161023f91906109f4565b60405180910390f35b610262600480360381019061025d9190610a4f565b610640565b005b34801561027057600080fd5b50610279610652565b60405161028691906109f4565b60405180910390f35b6102a960048036038101906102a49190610a8f565b61065c565b005b3480156102b757600080fd5b506102d260048036038101906102cd9190610a8f565b610666565b005b3480156102e057600080fd5b506102e9610670565b6040516102f691906109f4565b60405180910390f35b61031960048036038101906103149190610a8f565b61067a565b005b61033560048036038101906103309190610a8f565b610684565b005b610351600480360381019061034c9190610c02565b61068e565b005b61036d60048036038101906103689190610c02565b6106a1565b005b34801561037b57600080fd5b506103846106b4565b6040516103919190610cc2565b60405180910390f35b3480156103a657600080fd5b506103c160048036038101906103bc9190610a8f565b6106c7565b005b3480156103cf57600080fd5b506103d86106d1565b6040516103e59190610d5c565b60405180910390f35b3480156103fa57600080fd5b506104036107a1565b6040516104109190610d5c565b60405180910390f35b34801561042557600080fd5b5061042e610833565b60405161043b9190610d5c565b60405180910390f35b61045e60048036038101906104599190610a4f565b6108cb565b005b34801561046c57600080fd5b5061048760048036038101906104829190610a8f565b6108dd565b005b34801561049557600080fd5b5061049e6108e7565b6040516104ab9190610d5c565b60405180910390f35b3480156104c057600080fd5b506104c9610979565b6040516104d691906109f4565b60405180910390f35b6104f960048036038101906104f49190610a8f565b610983565b005b34801561050757600080fd5b5061051061098d565b60405161051d91906109f4565b60405180910390f35b34801561053257600080fd5b5061054d60048036038101906105489190610a4f565b610997565b005b34801561055b57600080fd5b506105646109a9565b60405161057191906109f4565b60405180910390f35b34801561058657600080fd5b5061058f6109b3565b60405161059c91906109f4565b60405180910390f35b3480156105b157600080fd5b506105cc60048036038101906105c79190610a8f565b6109bd565b005b3480156105da57600080fd5b506105e36109c7565b6040516105f091906109f4565b60405180910390f35b34801561060557600080fd5b50610620600480360381019061061b9190610a8f565b6109d1565b005b6000600f54905090565b6000600754905090565b6000601254905090565b8160098190555080600a819055505050565b6000600d54905090565b8060058190555050565b8060118190555050565b6000601054905090565b80600b8190555050565b8060048190555050565b806013908161069d9190610f8a565b5050565b80600190816106b09190610f8a565b5050565b601460009054906101000a900460ff1681565b80600f8190555050565b6060600554600454111561071c576040518060400160405280601381526020017f54454d5045524154555245204953204849474800000000000000000000000000815250905061079e565b6005546004541015610765576040518060400160405280601281526020017f54454d5045524154555245204953204c4f570000000000000000000000000000815250905061079e565b6040518060400160405280601781526020017f54454d504552415455524520495320414343555241544500000000000000000081525090505b90565b6060601380546107b090610dad565b80601f01602080910402602001604051908101604052809291908181526020018280546107dc90610dad565b80156108295780601f106107fe57610100808354040283529160200191610829565b820191906000526020600020905b81548152906001019060200180831161080c57829003601f168201915b5050505050905090565b6060617530600c54111561087e576040518060400160405280601381526020017f43616e6e616f742064696720616e796d6f72650000000000000000000000000081525090506108c8565b617530600c5410156108c7576040518060400160405280600781526020017f70726f636565640000000000000000000000000000000000000000000000000081525090506108c8565b5b90565b81600781905550806008819055505050565b8060128190555050565b6060600180546108f690610dad565b80601f016020809104026020016040519081016040528092919081815260200182805461092290610dad565b801561096f5780601f106109445761010080835404028352916020019161096f565b820191906000526020600020905b81548152906001019060200180831161095257829003601f168201915b5050505050905090565b6000600954905090565b8060068190555050565b6000600654905090565b81600d8190555080600e819055505050565b6000600c54905090565b6000600b54905090565b8060108190555050565b6000601154905090565b80600c8190555050565b6000819050919050565b6109ee816109db565b82525050565b6000602082019050610a0960008301846109e5565b92915050565b6000604051905090565b600080fd5b600080fd5b610a2c816109db565b8114610a3757600080fd5b50565b600081359050610a4981610a23565b92915050565b60008060408385031215610a6657610a65610a19565b5b6000610a7485828601610a3a565b9250506020610a8585828601610a3a565b9150509250929050565b600060208284031215610aa557610aa4610a19565b5b6000610ab384828501610a3a565b91505092915050565b600080fd5b600080fd5b6000601f19601f8301169050919050565b7f4e487b7100000000000000000000000000000000000000000000000000000000600052604160045260246000fd5b610b0f82610ac6565b810181811067ffffffffffffffff82111715610b2e57610b2d610ad7565b5b80604052505050565b6000610b41610a0f565b9050610b4d8282610b06565b919050565b600067ffffffffffffffff821115610b6d57610b6c610ad7565b5b610b7682610ac6565b9050602081019050919050565b82818337600083830152505050565b6000610ba5610ba084610b52565b610b37565b905082815260208101848484011115610bc157610bc0610ac1565b5b610bcc848285610b83565b509392505050565b600082601f830112610be957610be8610abc565b5b8135610bf9848260208601610b92565b91505092915050565b600060208284031215610c1857610c17610a19565b5b600082013567ffffffffffffffff811115610c3657610c35610a1e565b5b610c4284828501610bd4565b91505092915050565b7f4e487b7100000000000000000000000000000000000000000000000000000000600052602160045260246000fd5b60038110610c8b57610c8a610c4b565b5b50565b6000819050610c9c82610c7a565b919050565b6000610cac82610c8e565b9050919050565b610cbc81610ca1565b82525050565b6000602082019050610cd76000830184610cb3565b92915050565b600081519050919050565b600082825260208201905092915050565b60005b83811015610d17578082015181840152602081019050610cfc565b60008484015250505050565b6000610d2e82610cdd565b610d388185610ce8565b9350610d48818560208601610cf9565b610d5181610ac6565b840191505092915050565b60006020820190508181036000830152610d768184610d23565b905092915050565b7f4e487b7100000000000000000000000000000000000000000000000000000000600052602260045260246000fd5b60006002820490506001821680610dc557607f821691505b602082108103610dd857610dd7610d7e565b5b50919050565b60008190508160005260206000209050919050565b60006020601f8301049050919050565b600082821b905092915050565b600060088302610e407fffffffffffffffffffffffffffffffffffffffffffffffffffffffffffffffff82610e03565b610e4a8683610e03565b95508019841693508086168417925050509392505050565b6000819050919050565b6000610e87610e82610e7d846109db565b610e62565b6109db565b9050919050565b6000819050919050565b610ea183610e6c565b610eb5610ead82610e8e565b848454610e10565b825550505050565b600090565b610eca610ebd565b610ed5818484610e98565b505050565b5b81811015610ef957610eee600082610ec2565b600181019050610edb565b5050565b601f821115610f3e57610f0f81610dde565b610f1884610df3565b81016020851015610f27578190505b610f3b610f3385610df3565b830182610eda565b50505b505050565b600082821c905092915050565b6000610f6160001984600802610f43565b1980831691505092915050565b6000610f7a8383610f50565b9150826002028217905092915050565b610f9382610cdd565b67ffffffffffffffff811115610fac57610fab610ad7565b5b610fb68254610dad565b610fc1828285610efd565b600060209050601f831160018114610ff45760008415610fe2578287015190505b610fec8582610f6e565b865550611054565b601f19841661100286610dde565b60005b8281101561102a57848901518255600182019150602085019450602081019050611005565b868310156110475784890151611043601f891682610f50565b8355505b6001600288020188555050505b50505050505056fea2646970667358221220d77d97b6be16b1d73cf9afb5b0ec71f8004b4081d8adac6ed223fe3573b6077764736f6c63430008110033",
  "immutableReferences": {},
  "source": "//SPDX-License-Identifier: GPL-3.0\r\npragma solidity ^0.8.6;\r\n\r\ncontract OilExploration {\r\n    address MyAddress; // wallet address\r\n    string Location; // excavation area location\r\n    uint256 Date; // land inspect date\r\n    uint256 Temperature; // land temp at that time\r\n    uint256 MeasureTemp; // measured temp at that time\r\n    uint256 FixedTemp; // fixed temp for work\r\n    uint256 G_D; // land gravity density\r\n    uint256 EMF; // land electro magnetic param (earth main)\r\n    uint256 EMFR; // land electro magnectic rock param\r\n    uint256 Conductivity; // land conductivity param\r\n    uint256 EM; // electric conductivity of rock\r\n    uint256 Rad; // radioactivity of land\r\n    uint256 Depth; // well depth\r\n    uint256 KH; // horizontal permeability to air\r\n    uint256 KV; // veritcal permeability to air\r\n    uint256 CPOR; // core porosity\r\n    uint256 CSO; // core oil saturation\r\n    uint256 CSW; // core water saturation\r\n    uint256 RHOG; // grain density\r\n    string NullifierHash;\r\n\r\n    enum TempStage {\r\n        Normal,\r\n        High,\r\n        Low\r\n    }\r\n    TempStage public TempValue;\r\n\r\n    constructor() {\r\n        MyAddress == msg.sender;\r\n        Date = block.timestamp;\r\n    }\r\n\r\n    function setnullifierhash(string memory Nullifier_hash) public payable {\r\n        NullifierHash = Nullifier_hash;\r\n    }\r\n\r\n    function GetNullifierhash() public view returns (string memory) {\r\n        return NullifierHash;\r\n    }\r\n\r\n    function GetLocation() public view returns (string memory) {\r\n        return Location;\r\n    }\r\n\r\n    function Addlocation(string memory Land_location) public payable {\r\n        Location = Land_location;\r\n    }\r\n\r\n    function getGravityMeasure() public view returns (uint256) {\r\n        return G_D;\r\n    }\r\n\r\n    function SetGravityMeasure(uint256 Gravity_density) public payable {\r\n        G_D = Gravity_density;\r\n    }\r\n\r\n    function GetMagneticMeasure() public view returns (uint256) {\r\n        return EMF;\r\n    }\r\n\r\n    function SetMagneticMeasure(uint256 Earth_Main_MF, uint256 Rocks_MF)\r\n        public\r\n        payable\r\n    {\r\n        EMF = Earth_Main_MF;\r\n        EMFR = Rocks_MF;\r\n    }\r\n\r\n    function PutTemperature(uint256 TValue) public payable {\r\n        MeasureTemp = TValue;\r\n    }\r\n\r\n    function AddFixedTemp(uint256 F_Temp) public payable {\r\n        FixedTemp = F_Temp;\r\n    }\r\n\r\n    function CheckTemperature() public view returns (string memory) {\r\n        if (MeasureTemp > FixedTemp) {\r\n            return \"TEMPERATURE IS HIGH\";\r\n        } else if (MeasureTemp < FixedTemp) {\r\n            return \"TEMPERATURE IS LOW\";\r\n        } else {\r\n            return \"TEMPERATURE IS ACCURATE\";\r\n        }\r\n    }\r\n\r\n    function GetElectricalMeasure() public view returns (uint256) {\r\n        return Conductivity;\r\n    }\r\n\r\n    function SetElectricalMeasure(\r\n        uint256 Electrical_conductivity_of_Rock,\r\n        uint256 Electromagnetic_of_mettalic_body\r\n    ) public payable {\r\n        Conductivity = Electrical_conductivity_of_Rock;\r\n        EM = Electromagnetic_of_mettalic_body;\r\n    }\r\n\r\n    function GetRadioactiveMeasure() public view returns (uint256) {\r\n        return Rad;\r\n    }\r\n\r\n    function SetRadioactiveMeasure(uint256 Radioactive) public payable {\r\n        Rad = Radioactive;\r\n    }\r\n\r\n    function GetDepthMeasure() public view returns (uint256) {\r\n        return Depth;\r\n    }\r\n\r\n    function SetDepthMeasure(uint256 DepthMeasurement) public {\r\n        Depth = DepthMeasurement;\r\n    }\r\n\r\n    function GetPermialbilityMeasure() public view returns (uint256) {\r\n        return KH;\r\n    }\r\n\r\n    function SetPermialbilityMeasure(\r\n        uint256 Horizontal_Permeability_Air,\r\n        uint256 Vertical_permiablity_Air\r\n    ) public {\r\n        KH = Horizontal_Permeability_Air;\r\n        KV = Vertical_permiablity_Air;\r\n    }\r\n\r\n    function GetCoreProsityMeasure() public view returns (uint256) {\r\n        return CPOR;\r\n    }\r\n\r\n    function SetCoreProsityMeasure(uint256 Core_porosity) public {\r\n        CPOR = Core_porosity;\r\n    }\r\n\r\n    function GetCoreOilSaturation() public view returns (uint256) {\r\n        return CSO;\r\n    }\r\n\r\n    function SetCoreOilSaturation(uint256 core_Oil_Saturation) public {\r\n        CSO = core_Oil_Saturation;\r\n    }\r\n\r\n    function GetCoreWaterSaturation() public view returns (uint256) {\r\n        return CSW;\r\n    }\r\n\r\n    function SetCoreWaterSaturation(uint256 core_water_Saturation) public {\r\n        CSW = core_water_Saturation;\r\n    }\r\n\r\n    function GetGrainDemsity() public view returns (uint256) {\r\n        return RHOG;\r\n    }\r\n\r\n    function SetGrainDemsity(uint256 Grain_density) public {\r\n        RHOG = Grain_density;\r\n    }\r\n\r\n    function CheckDepth() public view returns (string memory) {\r\n        if (Depth > 30000) {\r\n            return \"Cannaot dig anymore\";\r\n        } else if (Depth < 30000) {\r\n            return \"proceed\";\r\n        }\r\n    }\r\n}\r\n",
  "sourcePath": "F:\\Code\\Blockchain\\hex-oil\\contracts\\oilexploration.sol",
  "compiler": {
    "name": "solc",
    "version": "0.8.17+commit.8df45f5f.Emscripten.clang"
  },
  "schemaVersion": "3.4.11",
  "updatedAt": "2022-12-03T17:39:17.772Z",
  "networkType": "ethereum",
  "devdoc": {
    "kind": "dev",
    "methods": {},
    "version": 1
  },
  "userdoc": {
    "kind": "user",
    "methods": {},
    "version": 1
  }
}